:020000040000fa
:080000001011040000000000d3
:020000040000fa
:10222000efd420000eff27000e0188000000000000
:102230000c00070040522400010020000f0007009e
:10224000000020000000e000020032000000020058
:102250000000000024460200000000000040da00f8
:102260000000fe00800520000000e00002003200b7
:10227000002020009001880000000600a1028800d4
:10228000800078000000eb001a003700e280400078
:1022900054a0b4009101ba00e280400054a0b40000
:1022a0009102ba00e280400054a0b4000002eb00aa
:1022b000472bde00f507b200a6018800602ce10084
:1022c00008003a000049eb000201e8000200390072
:1022d0003420ec0002f0a0008301e900f9ff3e0089
:1022e000040037006128e100010032000082eb00a9
:1022f000040007001101ba000200e000e3ff3a0009
:102300000000060004d0a300e20f49001c003900c1
:10231000810278003549ba000201e8000200390064
:102320003420ec0002f0a0008301e9000f0032002d
:102330002549ba000201e800020039003420ec000f
:1023400002f0a0008301e900080032000400e00070
:102350000600320015c9ba000201e8000200390087
:102360003420ec0002f0a0008301e9008180e80045
:1023700054a0b4000300e000e2ff3a0000000600b1
:102380009102ba00055978008301e900f7ff320095
:10239000c82ade00055978008301e900f3ff320006
:1023a0000400e000f1ff320011d9ba00eeff37005f
:1023b0002e27040000000000702704000000000029
:1023c0005227040000000000622804000000000002
:1023d000e0390400000000009c3904000000000007
:1023e000003a0400000000008e3e040000000000df
:1023f000603e040000000000f83e04000000000001
:10240000c63e0400000000001004b10007003500c3
:102410009001b100040034007000b10003003500e9
:102420009001b10001003c00100005000000050013
:102430006900e100040035006d00e1000300340094
:102440000002b1000100320000000500100005008c
:102450001004b100030035009001b10001003c0000
:102460001000050000000500800078001104b10094
:10247000030035009101b10001003c000050a000b4
:102480000000060003f0a200889fbe008a9fbe00e5
:102490008c1f7800f7000700fe0033006450e10055
:1024a0004f0032006420e1005200320003826c00d1
:1024b00007003b000905d0000306d000820f54003e
:1024c0000c065d000200390002003200890178002c
:1024d000030678008582550004003d000003fd00de
:1024e0008103fd008502ea008b854200840f7200a3
:1024f00002003b0060001000e08018006011b8008e
:102500000005eb007a28e1000a0039000600780097
:10251000c75ddd00f707b200878075002d0037002a
:10252000828171000a017800610560008180d1001c
:102530000080d3008502e900f9ff3b00060440005b
:102540008784480002003b0060041400e0841c0003
:102550000988a300070032008a817100828171001e
:10256000610164008904d1000884d3008b05e80070
:10257000170037000978a30013003a000b00e000b1
:10258000130034008b05e9000804440089844c00e2
:102590000a4474000978a3000d003a000b00e00023
:1025a000070034008b05e9000804440089844c00ce
:1025b00001003a000b0020000978a300f7ff320069
:1025c0000001eb0002003700828171000a017800ef
:1025d0006d0007000cf0a70001f0a000b600370066
:1025e0006420e10002003a00838f6c00b6003300e3
:1025f0000801be000200be00af003700889fbe0089
:102600008a9fbe008c1f78009a000700a10033004b
:1026100003866c006450e1002e0032006420e1006b
:10262000330032006150e1002f0032006120e100f0
:102630003100320085855500eb07b000090020000d
:1026400008042000050037000804440089844c0079
:102650000a0031000603430087834b00000153004a
:1026600081815b00f8ff33000203be000800a00078
:102670000804440089844c00f6ff3900c639dd00a7
:102680008301730001003200130020008904d1008f
:102690000884d3000998a300050032000800a700b1
:1026a0000300a0008904d1000884d3008b05e80052
:1026b0008904d1000884d3000001eb000281d2001c
:1026c0003100070001f0a1000cf0a70001f0a0000c
:1026d000790037006420e1007b0032000801be0071
:1026e0000200be00f7ff37006120e10076003200f3
:1026f0006000b800f3ff37000000200001f8270059
:10270000f0ff370014002000b6003700f4ff2f0060
:10271000b40037000001be00410007000470a700ac
:1027200003f0a10003f8a30013003a006509b1000b
:1027300010003200090035006928e1000200350070
:1027400001002800000005000000400081804800d2
:102750008502e900fcff3a0000000600f88f420005
:10276000050035008100d1000080d3008502e8001b
:10277000fcff3a00000006008000eb0000000500ae
:102780006011b800b2003700810020006180550060
:102790000b003d000b00200061fe2f000100e10056
:1027a0001d00340082817100610164008904d10040
:1027b0000884d3000000e800faff3a00710020000e
:1027c0006100640003007000020060000900320034
:1027d00061044400e0844c000988a5000500320033
:1027e0008b05e8006808e10002003a008904d10086
:1027f0000884d300f20f20000258e10005003d00dc
:10280000c75ddd00f907b200898075000800780017
:10281000000006000bf827008b0078000000050080
:10282000c70ade00f107b200f50fb200080032005f
:10283000e1cf4200020032000170a0002400050038
:10284000810f7000010032000408050044000500fb
:10285000810f700002003a00140005008502e900b3
:102860000000400081c04800fcff3b000170a00058
:10287000240005000004be00e9ff07000003be00bd
:102880000405be000200be00e5ff0700844f75008e
:10289000000006000200be006450e10005003600a2
:1028a0006420e100020036000968a30001003a003c
:1028b0000800be000160a0004f0678004f05be0072
:1028c0004f04be0000000600f0ff2f00f1ff2700bc
:1028d000f9ff3700889fbe008a9fbe008c1f7800da
:1028e000e4ff0700ebff330003866c006450e10057
:1028f000240032006420e100270032006150e10032
:10290000220032006120e100210032008b8542006c
:10291000eb07b1000134b800003ab80008044200e7
:1029200089844a00013ab8000030b800888040002d
:1029300009014a0004003300000040008180480083
:10294000020149008b05e900c909dd00830170001f
:102950000100320013002000c814de004814dd001e
:102960004709de001200b200c808de0008847000cb
:1029700085ff070001f0a1000cf0a70001f0a00006
:10298000cdff37006120e100cfff32000801be001b
:102990000200be00f7ff37006150e100fcff3a0083
:1029a000c9ff37006022b800060220000000d000f6
:1029b0008180d2000482d2008582d2000000a00073
:1029c0000202520083825a000300310002024200d8
:1029d00083824a000000a1000603e900f3ff3a00e9
:1029e00000000600889fbe008a9fbe00841f7800fa
:1029f000a0ff07004f00780011003300f0ff2f0008
:102a0000838f6c0006003b00040565000a00a700e8
:102a10000800370009f0a600100020000800370069
:102a2000820f5400838f5c000300390010002000e7
:102a300001003e000000200009f0a7000000ea00ad
:102a40004f05be004f04be000000e000000006007d
:102a5000889fbe008a9fbe00008270000402710041
:102a600004827100260032000004be000200be0095
:102a70006011b8006b092000950220000182cf0090
:102a80000a0039000541b1000082cf00070039007b
:102a90000541b1000982cf00040039000541b100b1
:102aa0000882cf00010039000541b1000542520003
:102ab000120032000a003b00828171006101640053
:102ac0008100d1000080d3008984d3000884d30022
:102ad0008b05e8000442e800f7ff3a0007003700e2
:102ae0000804440089844c000000480081804800ac
:102af0008b05e9000442e900f9ff3a0022ff0700d4
:102b00004f05be004f04be0000000600889fbe00b7
:102b10000004be00060037000000fb0089007800ba
:102b200076020700e10f4000050032000804e800cb
:102b300018407800e04f5000f7ff3a000000eb002b
:102b40004f04be0000000600881f7800a1d22000bc
:102b5000eeff070000047800a1d22000a0002000b2
:102b600066020700080078004f04780000000600a5
:102b70000c00fa00a0bf9f00c0bf9f00a402070086
:102b8000b0bf9f00f0bf9f00100c2000d0bf9f007f
:102b900074815700efb097006c8057003400070035
:102ba0000080fa0000000600881f7800506a80004c
:102bb000d101070000047800080078001cfe07001f
:102bc000e00f5000f9ff3a00e10f4400030032002b
:102bd000516a800008007800940207004f047800d2
:102be00000000600889fbe008a1f7800000478005d
:102bf000814478000205780000fd2f0008004000a5
:102c0000e90f500002003e00000478001000370079
:102c1000080078000efe0700e00f500005003200ab
:102c2000e00f550003003200080078000efe070098
:102c30000004780008007800f3fd070080007800a9
:102c400000c0eb00e08f5000060032007805b100b4
:102c50008984fb0000c0eb00890f540001003d0097
:102c6000084078004f0578004f04be0000000600c1
:102c7000f2874700889fbe008a9fbe008c9fbe00df
:102c80008e1f780080017800e1b79f00d2b79f00c7
:102c9000536a88000000eb00b0b79f0080407800c6
:102ca000e1ef9f005d0137006fb097000000e80082
:102cb000e0b79f000885fb000a007800dcfd0700f4
:102cc000e00f500002003200b7ff07005301370049
:102cd00051c2b300814f540041013a0021c0b300fa
:102ce000004778006fb297000145780084067800ad
:102cf000040037002ac0b300010037004ac0b30007
:102d00000d0278003d44780081c6b300814f540025
:102d1000f8ff320015003e00f0c05000814f540013
:102d20002f0032000a003e00ecc05000814f5400da
:102d30002700320086003e00e04f5400bb00320006
:102d4000a1c2b300814f540081003a001e00370039
:102d500031c6b300814f5400600032008140e8006a
:102d6000814f54007a003a008d00370031c7b3001c
:102d7000814f54002100320007003e00e7c05000a0
:102d8000814f540012003200e3c04000814f5400d4
:102d90006f003a008700370051c7b300814f5400dd
:102da0007f003200e3c04000814f540068003a00c9
:102db000cae79f0000467800edb79f000000eb00d7
:102dc000b0b79f000b0037000e47e800ccff37007c
:102dd000e24f5500c9ff32008ac0b300c8ff370078
:102de000cae79f0000467800edb79f001100200061
:102df000b1b79f000dc1b3007200370000467800e4
:102e0000edb79f0068ff0700e04f570004003a004d
:102e10005fb09700c0007800d0b79f00c1b79f0097
:102e2000506a80003401070000047800e10f44007c
:102e300014003a0008007800f4003700efb0970063
:102e40001100fb00800f540005003a000a007800d2
:102e5000c0b79f008100e800e1b79f00170037006e
:102e6000e04f570001003a00085d78000c46e90089
:102e70000d003200506a80001f0107000004780036
:102e8000010037004fb597000800e800e10f50003f
:102e9000080036000800780065fd0700e00f5000cc
:102ea000e6ff3200030037000a007800c0b79f0039
:102eb000020037008a007800c1b79f00e04f57003a
:102ec000d6003a006fe897000040e800e0ef9f006e
:102ed000cfb097008e487800d000370000467800c9
:102ee000edb79f00e04f570008003a006fe89700e9
:102ef0000040e800e0ef9f00dfb09700410078005d
:102f0000d1b79f0000047800010037004fb497004c
:102f1000506a8000f800070080007800e18f4000d0
:102f200002003a0001007800b8003700e04f570077
:102f300001003a00015c78000c46e9004240a9001b
:102f4000f3ff3c0008007800c0b79f00b3003700d3
:102f50000884fb0000fd2f0008004000e90f50002e
:102f600009003e0004007800bf00070001003700a0
:102f70008d06e8009d00fb000103b100e98f5000c1
:102f8000fbff36005eff3700edb79f00506a800000
:102f9000d9000700800f540097003a009f003700c7
:102fa000cae79f0000467800edb79f00adc0b300b0
:102fb00004003700cae79f0000467800edb79f0085
:102fc0008dc0b300f8fe0700506a8000ca000700f9
:102fd000800278000040eb00b0e79f00d3022000a1
:102fe000838f520005003a00506a8000c20007003b
:102ff0008002780011c0b300b1e79f003fb1970095
:103000008d4078000500780085bf9f00f5fe070021
:10301000804178008fba9700e1cf41000e003a005e
:10302000516a800005007800800107006fe8970072
:10303000e04f500002003200804078007c003700f2
:10304000506a80003000900070006000790032000b
:103050000080eb007700370003032000838f5200cd
:103060001b003a00506a800085bf9f00a200070045
:1030700080017800840720008fba9700848f510068
:1030800004003a003fb09700e00f50000700320004
:103090000a00370084052000848f510007003a00a1
:1030a000bfb09700e08f500004003200506a8000eb
:1030b000910007008002780005003700516a800007
:1030c0000300780085bf9f00580107008fba970062
:1030d0006044b8000d85fb000b0020000e40780016
:1030e000a0e79f00050778000a01be000800be00a7
:1030f000e30507000004be003fb197008d40780053
:103100000e007800b7fe0700004278000482fb0042
:10311000050020000404440085844c000c46e900ae
:103120000a003200506a8000730007000007780030
:103130003fb197008d4078000e007800a9fe07008f
:1031400080417800e1cf4100e7ff3a008e0278002d
:103150002fe797003fb197008d4078000500780079
:1031600085bf9f009ffe0700804078008fba9700c0
:10317000e1cf400003003a00516a8000050078006a
:103180002a010700bfe09700e0cf500002003200a4
:1031900060041400e0841c00e04f57001f003a0058
:1031a0006fe897000040e800e0ef9f00dfb0970075
:1031b0000180e900cfe09700e4cf500004003a001e
:1031c000d0b79f00900078008888be0013003700b9
:1031d000d0b79f0090007800880878000f00370073
:1031e000506a80004400070080007800810f55007d
:1031f0000a00320001007800e10f400003003200b5
:10320000516a80000901070008003700efe89700c5
:10321000e0cf500006003a00060037006fb097007c
:1032200010447800e04f54009ffe3a00efe897000a
:103230000180fb004f0778004f06be004f05be001f
:103240004f04be002f01b100000006000000fa008c
:1032500068815700cfb89700a0d220001201070064
:103260000080fa000000060002c2b300010037002f
:103270000000e8009040780082cf5000fcff320050
:10328000e9cf5000faff3200d2c2b30082cf500023
:1032900003003a000000e80012c0b3000500370048
:1032a0000041eb00b3c2b30083cf500001003a00ed
:1032b0000000e8008000eb00050037006a0ab90052
:1032c00001fd2f0084804000838040000000e80062
:1032d0009001fb0004fd2f0003024200e90f5200a1
:1032e000f6ff3600e04f5100010032008100ea0095
:1032f0000100780000000600881f780000047800b4
:1033000038009000f1006000e18f500006003a00a4
:10331000800078000120b200080032009800900080
:10332000e08f500005003200380090000040a000ff
:10333000300498000080eb00200037000090a100ce
:103340003004980018009000e00f5000070034008f
:103350000000e900100498009800780011417800fe
:103360000280fb00010ce8000500370038009000e7
:103370000004b200ecff3a000800780011000700da
:10338000b80090000108b2000c003a00fa0f50009b
:1033900008003a0028009000e00f5000e2ff3200e1
:1033a000180090000000e80010049800180ce900d4
:1033b000ddff3700ed0f5000e2ff32004f047800d0
:1033c000000006000200fa00889fbe008a9fbe002f
:1033d000000478000000eb0010049800b800900092
:1033e000e18060000080eb004000320040d420000b
:1033f0008040eb0090cf10000f003200e9d1200098
:103400002b1020004a0220000905450039009000d9
:103410002010b2008b0f500002003a000900780023
:1034200078040700ec8444008a8f5400f7ff3a00c8
:1034300040d420000048eb0058019000e00f5100fc
:103440000e003a001204980012002000ea80570093
:1034500048009000d7040700e10f500003003a0035
:103460006ff197000280fb002000370038009000c9
:103470000040a0003004980013003700a80090001e
:1034800048009000cb04070010049800e00f5000a3
:1034900003003200e10f40000d003a000300370046
:1034a000380090000040a000020037003800900073
:1034b0000003b3003004980028009000000c78004e
:1034c0000000eb00100498000080eb0007003700bc
:1034d000a8009000010c78000000e900100498009a
:1034e000114178000280fb00010ce8004f05be008e
:1034f0004f04be000080fa0000000600889fbe0056
:1035000001047800b8009000628160008084eb00c4
:103510003c003200810178000320b20018019000c5
:1035200002003a00e00f510036003a000190a0007e
:103530003104980080047800f90fb200e00f5100c8
:1035400002003a0028009000000c7800ea8f540036
:1035500006003a00010078000008b20003003a00bb
:1035600088007800d0002000e4ff070018009000d9
:10357000d8009000810f50000b0032000000e800de
:10358000100498001800780009487800000ce80042
:1035900010c0b30041d4200080487800ea8f540066
:1035a00018003a00050037008800780009407800cc
:1035b0003e040700800478001200370038009000b5
:1035c0000010b2000f00320018019000a800900017
:1035d00048009000ae07070098009000810f50004f
:1035e00004003200380090000003b300300498005b
:1035f0008084eb000000eb0010049800280090008d
:10360000000c7800090078004f04be00000006009e
:10361000800078000041eb00b14f1100fdff3a003f
:103620000080ea000080400000000600e10f40003a
:103630001c003200310190001220b200e10f510055
:1036400015003a0021029000e00f520012003200f3
:1036500011019000d1019000830f51001000320041
:1036600091017800848f510002003a008308e8003d
:10367000020037000201e800920098001101e90001
:1036800082087800b10090000104b20005003a0001
:1036900000497800000006000080eb0000000600f2
:1036a0000080eb00000006000f04b000889fbe0001
:1036b0008a9fbe008c9fbe008e1f7800c0b79f00ff
:1036c000d1af9f00a2b79f000000eb00c0033700fe
:1036d000dfa897008100e800d1af9f0052c2b3007d
:1036e00082cf520006003a000007eb0006c3b30089
:1036f00003c2b300b1c2b3005fa897001400370043
:10370000cfb19700330190000204b20005003200ef
:10371000030278009401780085497800030ae800e4
:10372000070037000501fb00cfb0970002007800ca
:1037300072ff070000017800e10f4100a50332008d
:10374000bfb297008502e800b5b79f00a10337001c
:1037500090427800d7c2b30087cf52000b003200ee
:103760000001e80087cf520005003c0083cf5200e3
:103770000900320081cf52000e003a0008003700e5
:1037800086cf52000b003a00070037000e30a00031
:103790000000e800eeff37000e00a0000300370035
:1037a0000e10a000010037000e20a00002007800db
:1037b000e7ff3700d0af9f00e20167000100320051
:1037c0000e00a100e8016700010032000e20a100f8
:1037d0008501fb000303b100e98f51000d003e009d
:1037e000000020005fa997006a00b9000003b10043
:1037f0009200fb0001004000d200fb000103b10079
:10380000e98f5000f8ff3600c0af9f00d2af9f0095
:103810000c0037008004eb00c9af9f00a3c2b300c7
:1038200083cf520007003a002fb59700ca057800f1
:10383000aab79f00cbaf9f005fa897000000e800e9
:10384000d0af9f008000eb00e1af9f00e3c2b30068
:103850005fa9970092cf11001e003a000ee0a00071
:10386000e4c151000201e800d2af9f00124278008b
:10387000834f52000d003a00afb297004503780025
:10388000a5b79f00e6af9f00820378008703e8009a
:1038900007017800100037006a00b9000003b1008a
:1038a000020040008301e800020037006fa8970083
:1038b000dfa997001301fb0001fd2f00828040006b
:1038c000e98f5000f4ff3600e0af9f00030178005d
:1038d000010037005fa9970032427800c4779f004b
:1038e000c8c6b300884f520023003200d2af9f00f9
:1038f0000f003c0035c6b300854f5200a7003200d0
:1039000004003c00e04f52003703320083c5b3008f
:103910000f00370043c6b300834f5200c40032008b
:10392000e5c14100834f5200ba003a00c0003700a1
:1039300035c7b300854f52001a00320007003c0023
:10394000f3c6b300834f5200110032008341e800f8
:10395000834f5200af003a000f00370053c7b30047
:10396000834f5200b1003200e3c14100834f520047
:10397000a8003a0009003700700067000100280025
:1039800001003a000101200001077700d2ff370053
:103990000e60a000a60037000e50a0000e70a00020
:1039a000a3003700afb49700c9027800a9b79f0001
:1039b000d5b79f00e08f520002003a006bd1200083
:1039c000dbb79f000000eb00e0b79f005fb09700ff
:1039d000efb097007fb197008fb9970001003700d3
:1039e0008500e8008102780061427800e04f5200d3
:1039f000fbff3a00d0b79f00e1b79f00f2b79f00ee
:103a000083bf9f00efaa9700e08f520005003200ad
:103a10006fb39700868f5200020031008503780053
:103a2000e7b79f00efb297000006eb004fac97009e
:103a3000850f540001003600050654006807670032
:103a40002f003a008c01780008c2b300cfb697006f
:103a5000100037003d0090000004b2000400320066
:103a60001d00780008487800800ee8000500370047
:103a70008d00780000022000a0fe0700e10f40004a
:103a800003003200bfb497008904e800b9b79f0073
:103a90008c0178000c06e900e08f5100edff3a0040
:103aa000170037003d0090000004b200090032000a
:103ab0009d01780008017800324078008049780044
:103ac000830ee80002047800e04f500008003a003e
:103ad00010003700080178003200fb000204780073
:103ae0008d00780085fe0700e10f400009003200dc
:103af0003fb097000000e800b0b79f000500370016
:103b00005fb49700efb497007fb597008fbd970023
:103b1000cfb69700090078008004e900e00f50005c
:103b2000e0ff3a00d8b79f00e9b79f00fab79f00bf
:103b30008bbf9f00e00f5700a60232001100370034
:103b4000380090000004b200040032001800780031
:103b50000d487800000ce800050037008800780068
:103b60000002200065fe0700e10f40000300320064
:103b7000bfb297008502e800b5b79f000e06780037
:103b8000020037000dc2b3004fb497000c07e900e4
:103b9000e00f5600eaff3a008e0237002fb397007d
:103ba00046047800a6b79f00cfc4de000905780060
:103bb0008a0578000802be000a03be004822de0023
:103bc0004828dd0004027000c4779f00700667007b
:103bd00009003200e04f520007003200e14f42007e
:103be00005003200d4779f00e8779f002100200075
:103bf000e1b79f0003003700d8779f001200200034
:103c0000e2b79f0053fb2f0083814700d3b79f008b
:103c10007cff370044fb2f0004824700d4b79f008d
:103c200015002000e5b79f0076ff37000e0cb300ab
:103c30000e007800000cb2003b003a00e00f570085
:103c400005003d002fb097004005be004004be00b7
:103c5000a0b79f000f00370070006700120032000d
:103c60002fb297004401be00a4b79f00e29f9f00bf
:103c7000f39f9f00140090004f80de0080a79f00fc
:103c800090a79f006f9c9700ff9c97000fa597003f
:103c90009fa59700d8b79f00e9b79f00fab79f008c
:103ca0008bbf9f000b003700afb49700490278002c
:103cb000a9b79f0004007800cf80de0001017800e2
:103cc00082017800d0b79f00e1b79f00f2b79f0054
:103cd00083bf9f005fb29700efb297007fb397005a
:103ce0008fbb9700e00f5200e08f5a00e00f5b009f
:103cf000e08f5b0032003d003e00b3006022b80060
:103d00006033b8005fb49700efb497007fb59700b9
:103d10008fbd97000804520089845a000a055b0091
:103d20008b855b0022003700e00f570005003d0047
:103d30002fb297004401be004400be00a4b79f000c
:103d40000f00370070006700120032002fb4970098
:103d50004803be00a8b79f00e6a79f00f7a79f00f3
:103d60008004eb0089af9f000005eb009aaf9f0035
:103d70006fa09700ffa097000fa997009fa9970039
:103d8000d0b79f00e1b79f00f2b79f0083bf9f00ad
:103d90000b003700afb0970041027800a1b79f0039
:103da00004047800090020000a0020000b00200015
:103db000d8b79f00e9b79f00fab79f008bbf9f005d
:103dc000efac9700e08f54000d003a001a0020007d
:103dd000eaaf9f005fb09700efb097007fb1970008
:103de0008fb99700e00f5000e08f5800e00f5900a6
:103df000e08f5900020032008000eb00e1af9f002d
:103e00000e017800020cb200b2af9f000504200042
:103e1000850f51003f00320003003c00e00f5100cd
:103e2000080032005600370004082000bfa99700a0
:103e3000848f51001b003200040c2000848f51003d
:103e40004f003a0013c0b300c3779f0041c5200064
:103e5000100037000200fb004300dd00008040003e
:103e60003002be002003be005fb49700efb497009d
:103e70007fb597008fbd97000440e10005c8e100c1
:103e800006d0e10007d8e1003d0039000241e8001a
:103e9000c2779f004f719700f44f5100edff3a0039
:103ea0003700370013c0b300c3779f000401200020
:103eb000050020006033b800120037005fb497009f
:103ec000efb497007fb597008fbd97000440e100e5
:103ed00005c8e10006d0e10007d8e100280039005c
:103ee000490020000402d0008582d2000683d2005f
:103ef0008783d2008904e900faff3a000040e80015
:103f0000c0779f004f709700f04f5000ebff3a00d2
:103f10001b00370013c0b300c3779f00840020004c
:103f2000050020006033b800120037005fb497002e
:103f3000efb497007fb597008fbd97000440e10074
:103f400005c8e10006d0e10007d8e1000c00390007
:103f5000390020000402d0008582d2000683d200fe
:103f60008783d2008904e900faff3a000040e800a4
:103f7000c0779f004f709700f54f5000ebff3a005d
:103f80004f7597008a02fb00efad97008b8f5200b0
:103f900002003d00cb779f00040037006fa8970018
:103fa000850f500001003d00e5af9f00cfa89700ae
:103fb000e08f50000400320063026700020032000c
:103fc0008100e900c1af9f000400240004026700e3
:103fd000090032004fa99700efa99700830f510005
:103fe0000300340003015100c2af9f0002003700fc
:103ff0000002eb00c4af9f004f7397008602fb00e6
:104000008003eb00a7af9f004fac9700850f5400d3
:104010000200340085025400a5af9f0064026700cf
:104020004c003200e202670061036700e08f52003b
:104030001b003200cfb49700390290000404b20094
:104040000900320099037800b5c2b300e00f5300b5
:104050000100320085c2e800854b78004fb597001b
:10406000070de8000a003700d5022000e00f5300da
:1040700001003a008582e900cfb097000500780082
:104080001efd070000027800e10f42001800320018
:10409000bfb597008b05e800bbb79f001400370041
:1040a000e00f5300120032004fb097003002900032
:1040b0000404b200050032009002780003c2b3008d
:1040c000834a78000508e80006003700cfb0970063
:1040d0000002200009fd070000027800e10f420005
:1040e00003003200bfb097008100e800b1b79f0025
:1040f0002fa99700e00f51001101320008c3b3004f
:10410000820678004fb697003c0090000004b20091
:10411000040032001c00780008487800000ee80017
:10412000050037008c00780000032000f3fc070036
:10413000e10f400003003200bfb197008301e800a7
:10414000b3b79f008d06e900efff3a00adaf9f00c7
:10415000fb0037002faa9700e00f52001700320033
:104160006802670015003a0008c2b300afae9700be
:104170004fb697003c0090000004b20004003200eb
:104180001c00780008487800000ee80005003700a1
:104190008c00780000022000d8fc0700e10f4000ee
:1041a00003003200bfb297008502e800b5b79f0058
:1041b0008d06e900efff3a00adaf9f00e202670015
:1041c00061036700e08f52001c003200cfb39700fc
:1041d000370290000404b2000a003200070478009d
:1041e00098037800b5c2b300e00f5300010032001d
:1041f00085c2e800854b7800cfb49700870ce800b3
:104200000a003700d5022000e00f530001003a00f9
:104210008582e900cfb0970005007800b7fc070061
:1042200000027800e10f4200c50032003fb5970060
:104230000a05e800bab79f00c1003700e00f53003d
:10424000bf003200cfb597003b0290000404b200db
:10425000050032009b02780003c2b300834a780055
:10426000850de80006003700cfb09700000220005f
:10427000a2fc070000027800e10f4200b00032000b
:104280003fb097000000e800b0b79f00ac003700d7
:104290000e07e90000042000bfa89700808f50009f
:1042a0008200320003003c00e08f50000800320022
:1042b0008e003700000820003fa99700800f5100b2
:1042c00065003200000c2000800f510087003a008a
:1042d0004370dd00cfa99700e08f51002a003d0018
:1042e00044c52000000042003004be002005be008e
:1042f000e8af9f00f9af9f008ab79f009bb79f0070
:104300000802be000a03be005fb09700efb097003e
:104310007fb197008fb99700ed010700c0779f002c
:104320000004fb00cfc4de00090578008a05780090
:104330006faa9700ffaa97000fb397009fb397004b
:104340000800be000a01be004d0207000203be00c5
:104350000002be005fb09700efb097007fb19700fa
:104360008fb997000400500085805800060159005d
:1043700087815900d0b79f00e1b79f00f2b79f0037
:1043800083bf9f0030003700df989700e08f500018
:104390001f0032005fb69700efb6970042c52000bd
:1043a000000041003004be002005be000801be0030
:1043b0000c00be007bf90700c0779f000000fb00e7
:1043c000cf80de000801be002d010700000256006c
:1043d00081825e00a4a79f00b5a79f008002eb002a
:1043e000c5a79f000003eb00d6a79f002fa497004e
:1043f000bfa497004fa59700dfa59700d8b79f00ef
:10440000e9b79f00fab79f008bbf9f000e003700ef
:1044100049c52000690178005fb59700811f7800c9
:10442000110009000285d800cf007800a20020000a
:10443000811f7800110009000280d8000100780077
:10444000cf007800c0779f00cf7597000b43b00076
:10445000cb779f002500370044cf20004f9897006e
:10446000e00f500001003a0054d020004270dd00ff
:104470005fb49700efb497007fb597008fbd9700aa
:10448000800278008502e900050033008b05d10029
:104490000a85d3008984d3000884d300f9ff37004c
:1044a0006f006400644078000f0037006370b9004b
:1044b0005fb49700efb497007fb597008fbd97006a
:1044c000000278000402e900050033008b05d100ea
:1044d0000a85d3008984d3000884d300f9ff37000c
:1044e000674064000043b000c0779f00cfb29700e0
:1044f000350090000004b20007003200150178007a
:104500004f70970000497800820ae800e04f5000a1
:1045100007003a00120037004f7397000600fb00b7
:10452000cfb09700f5fb0700e10f40000c00320010
:10453000bfb397008703e800b7b79f0008003700b4
:1045400070046700d89f9f008e0478000902b200b3
:10455000c99f9f000e057800caaf9f006faf9700fc
:10456000e00f57004aff3a004faf9700680167001d
:1045700018003200afad9700e08f550015003400f1
:1045800008c2b3008b0678003fb797004fb697007c
:104590003c0090000004b200040032001c007800cf
:1045a00008487800000ee800050037008c0078000d
:1045b00000022000d1fb0700e10f400001003200a3
:1045c0000e07e8008d06e900f1ff3a000e007800c2
:1045d000b0b79f00dfa8970091427800c5779f0091
:1045e000e0cf52003afc3a003fb097004f07780006
:1045f0004f06be004f05be004f04be000f04b100c1
:1046000000000600881f7800000478003800900041
:10461000800078001120b200e18f500005003a00c0
:104620008000eb0011049800a8009000010c7800b5
:1046300019003700000178002220b2000000eb00d2
:1046400021202000810f510016003a00a8009000a0
:10465000808f50001300320018019000800f51002d
:104660001000320048009000890307009800900075
:10467000810f500003003200380090000003b300a7
:10468000300498000000eb0010049800280090000f
:10469000000c7800380090000002b20001003200e7
:1046a0000080eb004f047800000006000200fa00d2
:1046b000889fbe00a0ff9f00010478003800900092
:1046c000800078000104b20033003a00e20060008c
:1046d00005003a000003b30030049800110498006c
:1046e0000080eb002e003700d8049000e08f5400cb
:1046f00006003a0012002000e680570048009000b3
:10470000630307001904980023003700a8009000f5
:10471000e08f500008003a0071d420002104980076
:10472000010c780021002000510498001104980029
:104730000030a0003004980018019000a8009000fc
:104740004800900052030700280090008080eb0092
:1047500011049800aff8970001487800000ce800b9
:104760002ff89700ea4f50000b003a0038009000f5
:104770000010b2000800320018019000a80090005c
:1047800048009000420307000000eb00100498006e
:10479000a8009000010c7800aff897000100fb0022
:1047a0004f04be000080fa000000060000c0da00de
:1047b000000006000a00fa00e00f500026003a0050
:1047c000606a8000e10f5000060032008023200064
:1047d000652320002423200003232000e00f500045
:1047e00004003a00802220006522200024222000bc
:1047f00003222000060028009303630002003a0011
:104800000708780093097300020078000c00370055
:104810008301e900940378006183630002003a0099
:10482000e08f5100faff3a0014037800e1016300c1
:104830000700320095017800835878000000e900f5
:10484000e00f500002003200030a2000f1ff3700a1
:10485000000051000800370023002000b3bf9f0074
:10486000c0bf9f00d1bf9f00e2bf9f006a8057007a
:10487000ceff07006fb897000080fa000000060026
:10488000020ab900001bb9000200b8008100420012
:104890008100430000000600889fbe008a9fbe0082
:1048a0003004be002005be000404440085844c0092
:1048b00006054d0087854d000898be000a90be0091
:1048c0000440e10005c8e10006d0e10007d8e1009e
:1048d00002003100680040001008e8004f05be00eb
:1048e0004f04be0000000600889fbe008a9fbe00e5
:1048f0008c1f7800000678003c04be002c05be002a
:104900000400540085805c0006015d0087815d0025
:10491000009ebe00029ebe00100020000440e10088
:1049200005c8e10006d0e10007d8e1000100390028
:104930000000eb001c0e10004f0678004f05be0073
:104940004f04be00000006001200fa00889fbe005f
:104950008a9fbe008c9fbe000205be000004be0000
:10496000e4b79f00f5b79f0086bf9f0097bf9f00e9
:104970000000eb00d0b79f00c0b79f00b0b79f000a
:10498000a0b79f0090b79f0000067800fd032000ad
:10499000dfb197004fb0970003814100bfb097008f
:1049a000e08f510004003d00290007007e80570081
:1049b000b9ff070003003700250007007e8057007d
:1049c000c9ff0700dfb09700e08f500007003500f7
:1049d00014002000050020006033b80008047200b5
:1049e000898472000a0573008b8573000c06e80049
:1049f0008d0f5600e6ff3400e08f500006003d00aa
:104a00006fb29700ffb297000fbb97009fbb970054
:104a10007e805700a0ff07005fa89700e00f5000be
:104a200004003a001fb49700afb497003fb5970059
:104a3000cfb597000800be000a01be004f06be00b9
:104a40004f05be004f04be000080fa0000000600c3
:104a5000cf01de0002817100b2b79f004f09de0076
:104a60000000400000007100a0b79f000fb0970049
:104a70004f01de00818040008100710091b79f00ee
:104a80007faa9700cf20de00000040000080700069
:104a900080b79f000800be000a01be004f18de006c
:104aa0000402420000027200f4af9f0008044400b8
:104ab00089844c000a054d008b854d004fb297004c
:104ac000dfb297006fb39700ffb3970000000600b6
:104ad000881f780018002000881f78009aff0700c0
:104ae0008f87e9004f04780000000600801feb006c
:104af00095ff07008f87e90000000600889fbe0031
:104b00008a9fbe008c1f7800e00f5000e08f580095
:104b1000e00f5900e08f59000f003d006044b800dd
:104b20006055b8000000540081805c0002015d0007
:104b300083815d001c0020000820e10009a8e1003d
:104b40000ab0e1000bb8e1000d003d0019000700bc
:104b50000006eb000a0037000006eb00e00f5200f1
:104b6000e08f5a00e00f5b00e08f5b0004003d0027
:104b70006044b8006055b8000e0007001c0020001b
:104b8000d3ff0700e00f5600060032006022b80095
:104b90006033b8000000520081805a0002015b00bf
:104ba00083815b004f0678004f05be004f04be00b6
:104bb000000006000402540085825c0006035d00cc
:104bc00087835d0000000600889fbe008a9fbe00ac
:104bd0008c1f7800e00f5000e08f5800e00f590064
:104be000e08f59000d003d006044b8006055b800ea
:104bf0000000540081805c0002015d0083815d0043
:104c00001c0020000820e10009a8e1000ab0e10032
:104c10000bb8e1000d003d00080037000006eb0076
:104c2000e00f5200e08f5a00e00f5b00e08f5b0066
:104c300006003d006044b8006055b800040254000e
:104c400085825c0006035d0087835d00a7ff070087
:104c5000e00f5600060032006022b8006033b80052
:104c60000000520081805a0002015b0083815b00da
:104c70004f0678004f05be004f04be00000006003e
:104c8000889fbe008a9fbe008c1f78000006eb0044
:104c9000e00f5000e08f5800e00f5900e08f5900fe
:104ca00007003d006044b8006055b80000005400a3
:104cb00081805c0002015d0083815d001c0020009a
:104cc000e00f5200e08f5a00e00f5b00e08f5b00c6
:104cd00007003d006044b8006055b800040254006d
:104ce00085825c0006035d0087835d000c00a200e6
:104cf0000c000700e00f5600060032006022b800ea
:104d00006033b8000000520081805a0002015b004d
:104d100083815b004f0678004f05be004f04be0044
:104d200000000600889fbe008a9fbe008c9fbe00c8
:104d30000404b8000506b8008904460060854e00ea
:104d40000606b8000a054600e0854e000706b800d2
:104d50008b054600040eb800890446000a854e0003
:104d6000e0854d00050eb8000a0546008b854e0013
:104d7000060eb8008b0546000416b8000a0546006a
:104d80008b854e000516b8008b054600041eb80042
:104d90008b0546000800be000a01be004f06be009b
:0c4da0004f05be004f04be0000000600de
:020000040000fa
:020000040002f8
:04aff400031c00003a
:020000040000fa
:020000040002f8
:04aff8000f890000bd
:020000040000fa
:020000040002f8
:04affc007f3e000094
:020000040000fa
:102000001011040000000000c046040000000000a1
:10201000c046040000000000c046040000000000ac
:10202000c046040000000000c0460400000000009c
:10203000c046040000000000c0460400000000008c
:10204000c0460400000000000c3504000000000041
:10205000c046040000000000c0460400000000006c
:102060003235040000000000583504000000000074
:10207000c046040000000000c0460400000000004c
:102080003e290400000000001829040000000000a0
:10209000c046040000000000c0460400000000002c
:1020a000c046040000000000c0460400000000001c
:1020b000c046040000000000c0460400000000000c
:1020c000c046040000000000c046040000000000fc
:1020d000c046040000000000c046040000000000ec
:1020e0007e35040000000000a4350400000000005c
:1020f000c0460400000000008a290400000000001f
:102100006429040000000000c04604000000000034
:10211000c046040000000000c046040000000000ab
:10212000c046040000000000c0460400000000009b
:10213000c046040000000000c0460400000000008b
:10214000c046040000000000c0460400000000007b
:10215000c046040000000000c0460400000000006b
:10216000c046040000000000c0460400000000005b
:10217000c046040000000000c0460400000000004b
:10218000c046040000000000c0460400000000003b
:10219000c046040000000000c0460400000000002b
:1021a000c046040000000000c0460400000000001b
:1021b000c046040000000000d62904000000000012
:1021c000b029040000000000c04604000000000028
:1021d000c046040000000000c046040000000000eb
:1021e000c046040000000000222a04000000000095
:1021f000fc29040000000000c046040000000000ac
:10220000c046040000000000c046040000000000ba
:10221000c046040000000000c046040000000000aa
:020000040000fa
:1000080004100000081000000c1000001010000080
:10001800141000000c1100000c1100000c1100005d
:10002800181000001c100000201000002410000010
:100038000c110000281000002c10000030100000e7
:1000480034100000381000003c1000004010000080
:1000580044100000481000000c1100000c110000b2
:100068004c10000050100000541000005810000000
:100078005c1000000c11000060100000641000000b
:100088000c110000681000006c10000070100000d7
:1000980074100000781000007c1000008010000030
:1000a80084100000881000000c1100000c110000e2
:1000b8000c1100008c10000090100000941000003b
:1000c800981000009c100000a0100000a410000070
:1000d800a8100000ac1000000c1100000c1100006a
:1000e8000c110000b0100000b41000000c1100004a
:1000f8000c110000b8100000bc1000000c1100002a
:100108000c1100000c1100000c1100000c11000073
:100118000c1100000c110000c01000000c110000b0
:100128000c110000c4100000c8100000cc10000022
:100138000c1100000c1100000c1100000c11000043
:10014800d01000000c1100000c1100000c11000070
:100158000c110000d41000000c1100000c1100005c
:100168000c110000d8100000dc100000e0100000a6
:10017800e4100000e8100000ec100000f01000008f
:10018800f4100000f8100000fc100000001100003e
:1001980004110000081100000c1100000c110000ef
:1001a8000c1100000c1100000c1100000c110000d3
:1001b8000c1100000c1100000c1100000c110000c3
:1001c8000c1100000c1100000c1100000c110000b3
:1001d8000c1100000c1100000c1100000c110000a3
:1001e8000c1100000c1100000c1100000c11000093
:0801f8000c1100000c110000c5
:020000040000fa
:104dac00486500006c6c00006f200000576f00001d
:104dbc00726c000064210000005400007970000047
:104dcc0065200000736f00006d65000074680000c2
:104ddc00696e000067200000617400002074000000
:104dec006865000020700000726f00006d7000009c
:104dfc00742e0000005900006f7500002077000031
:104e0c00726f000074650000202500007320000004
:104e1c000a0000002564000020250000640000004a
:104e2c00766100006c3100002069000073200000e6
:104e3c00256400000a000000766100006c3200005e
:104e4c002069000073200000256400000a000000a7
:020000040000fa
:104e5c000400fa00000f78002147980000000000c1
:104e6c001e007800100090009000780000202000b8
:104e7c0000806000e00f5000f9ff3a001e0078003f
:104e8c00a00090002e4090000080fb00800878006d
:104e9c000080fa00000006000200fa00000f780003
:104eac00000000001e007800100090001000780038
:104ebc0061006000e00f5000faff32001e00780025
:104ecc003000900010007800004078000080fa005c
:104edc00000006000400fa00000f7800214798003b
:104eec00000000001e007800d01090001e0078001a
:104efc0020109000808f5000faff32001e007800c6
:104f0c00901090001e00780040109000008040002f
:104f1c00ae409000014878001e00780040109000d0
:104f2c008000e8001e00780020109000000178003e
:104f3c00110009008280d8008000fd0080007800fc
:104f4c001e007800411098001e0078005010900050
:104f5c008000e8001e007800511098001e007800b8
:104f6c00d01090001e00780030189000808f5000f8
:104f7c00080039001e007800100090009e00780098
:104f8c009100900011017800014020008100710017
:104f9c00010878000080fa00000006000400fa0006
:104fac00100798001e009000d00090001e0090008a
:104fbc0050009000100178001e0090006048900096
:104fcc000080fb00130020000018dd000080ea00c8
:104fdc0000006100800878001e00900050109000c6
:104fec00e00f500026003a001e00900010009000c8
:104ffc009e0090009100900011017800f1bf2f00ed
:10500c0081006100010878001e0037001e0090002e
:10501c00901090001e009000301090000080400016
:10502c00104f78001e009000301090008000e800b7
:10503c001e00900020109000000178001100090063
:10504c008280d8008000fd00800078001e00900057
:10505c00311098001e009000501090008000e90064
:10506c001e009000511098001e009000200090002f
:10507c001e4178008280fb00010878000100370097
:10508c00000000001e0090001000900090007800be
:10509c000020200000806000e00f500004003a0067
:1050ac001e00900050109000e00f5000d7ff3a0007
:1050bc000080fa00000006000400fa0010079800b7
:1050cc00000000001e00900020189000e00f50001f
:1050dc00fcff32001e009000e01090001e009000bb
:1050ec000018900000804000104f78001e009000c7
:1050fc00001890008000e8001e00900070109000d6
:10510c0000017800110009008280d8008000fd00a9
:10511c00800078001e009000011898001e0090007e
:10512c00201890008000e9001e00900021189800c3
:10513c001e4078000080fa00000006000200fa0011
:10514c00000f78001e007800d00090001e00780040
:10515c0050009000100178001e00780070489000fc
:10516c000080fb00130020000018dd000080ea0026
:10517c0000006100800878001b0037001e007800da
:10518c00e01090001e007800101890008080400005
:10519c001e0078003000900010007800004078006d
:1051ac00804878001e007800101890008000e800fd
:1051bc001e007800701090000001780011000900aa
:1051cc008280d8008000fd00800078001e007800ee
:1051dc00111898001e007800201890008000e8003c
:1051ec001e007800211898001e0078001000900016
:1051fc00100078006100600000407800e04f500023
:10520c00060032001e007800a01890001e007800e6
:10521c0070109000808f5000d8ff3a000080fa0088
:10522c00000006003600f800809fbe00829fbe0082
:10523c00849fbe00869fbe003200f8000020200034
:10524c00900188000000fa00809b200053ff0700ab
:10525c000080fa003200f9004f03be004f02be007e
:10526c004f01be004f00be003600f90000400600a2
:10527c003600f800809fbe00829fbe00849fbe0057
:10528c00869fbe003200f8000020200090018800ac
:10529c000000fa00809b2000a8ff07000080fa00a5
:1052ac003200f9004f03be004f02be004f01be009a
:1052bc004f00be003600f900004006003600f80032
:1052cc00809fbe00829fbe00849fbe00869fbe0052
:1052dc003200f80000202000900188000000fa0045
:1052ec00409f20002dff07000080fa003200f900db
:1052fc004f03be004f02be004f01be004f00be0068
:10530c003600f900004006003600f800809fbe0011
:10531c00829fbe00849fbe00869fbe003200f800b4
:10532c0000202000900188000000fa00409f20001f
:10533c0082ff07000080fa003200f9004f03be0024
:10534c004f02be004f01be004f00be003600f900f8
:10535c00004006003600f800809fbe00829fbe0011
:10536c00849fbe00869fbe003200f8000020200003
:10537c00900188000000fa0000a3200007ff07003e
:10538c000080fa003200f9004f03be004f02be004d
:10539c004f01be004f00be003600f9000040060071
:1053ac003600f800809fbe00829fbe00849fbe0026
:1053bc00869fbe003200f80000202000900188007b
:1053cc000000fa0000a320005cff07000080fa0038
:1053dc003200f9004f03be004f02be004f01be0069
:1053ec004f00be003600f900004006003600f80001
:1053fc00809fbe00829fbe00849fbe00869fbe0021
:10540c003200f80000202000900188000000fa0013
:10541c00c0a62000e1fe07000080fa003200f9006f
:10542c004f03be004f02be004f01be004f00be0036
:10543c003600f900004006003600f800809fbe00e0
:10544c00829fbe00849fbe00869fbe003200f80083
:10545c0000202000900188000000fa00c0a6200067
:10546c0036ff07000080fa003200f9004f03be003f
:10547c004f02be004f01be004f00be003600f900c7
:10548c00004006000800fa00100798002107980059
:10549c00320798001e009000e00f500029003500e4
:1054ac00e10f500003003400e20f500013003200f3
:1054bc00250037000000eb00000f78000a003700d1
:1054cc002e00900010407800ae0090008100e800a3
:1054dc002107980042558000804078000200780037
:1054ec004d0407001e0fe8009e0078003e0090005f
:1054fc00808f5000f2ff3900130037000000eb00e2
:10550c00000f78000a0037002e0090001040780041
:10551c00ae0090008100e8002107980052558000f1
:10552c0080407800020078003b0407001e0fe80062
:10553c009e0078003e009000808f5000f2ff3900f2
:10554c0001003700000000003e0090000080fa00cf
:10555c00000006000000fa00b4070700406d2000b0
:10556c00801f78005701200086c0b3008082eb00ba
:10557c0064c0b3008001eb00022f2000212f20001b
:10558c00c0aa2000bf0807008f87e900a06d20008b
:10559c00801f7800a70120000043eb008082eb0005
:1055ac0074c0b3008001eb00022f2000212f2000db
:1055bc0020ac2000b30807008f87e90040002000d2
:1055cc00801f780030002000801f780080c0b3005e
:1055dc00801f78000040eb00801f7800406a20009c
:1055ec00801f7800406a2000801f7800b0c0b30094
:1055fc00801f7800c0c0b300801f780047092000ce
:10560c00460820008522200064222000432220002e
:10561c002222200001222000809b20006b0007002a
:10562c00f087570060002000801f78005000200099
:10563c00801f780080c0b300801f78000040eb0012
:10564c00801f7800606a2000801f7800606a20004c
:10565c00801f7800e0c0b300801f7800f0c0b3005a
:10566c00801f780067092000660820008523200031
:10567c006423200043232000222320000123200048
:10568c00409f200051000700f0875700d0012000f8
:10569c00801f7800c0012000801f780080c0b300fc
:1056ac00801f780080c0b300801f7800a06a2000a3
:1056bc00801f7800206a2000801f780020c0b30073
:1056cc00801f780030c0b300801f7800e7092000ed
:1056dc00e6082000852520006425200043252000b5
:1056ec00222520000125200000a320003700070000
:1056fc00f0875700f0012000801f7800e0012000a7
:10570c00801f780080c0b300801f78000040eb0041
:10571c00801f7800606b2000801f7800606b200079
:10572c00801f780080c0b300801f780090c0b30049
:10573c00801f7800e7092000e6082000852b200058
:10574c00642b2000432b2000222b2000012b200057
:10575c00c0a620001d000700f08757000000eb00da
:10576c00801f78000000eb00801f78000000eb0029
:10577c00801f78000000eb00801f78000000eb0019
:10578c00801f780010002000801f7800e5c4b30053
:10579c0006002000676924000002eb008001eb008a
:1057ac0022ac2000c1aa2000809b200072000700c0
:1057bc00ec875700809b200040558800809b200080
:1057cc00505588000080fa00000006001000fa0016
:1057dc00000f7800110798002207980033079800f3
:1057ec0044079800550798006607980077079800bb
:1057fc001e0078009e009000010878001e007800c2
:10580c00ae009000110098001e007800be009000c1
:10581c00210098001e007800ce0090003100980006
:10582c001e007800de009000410098001e007800f9
:10583c00ee009000510098001e007800fe009000d1
:10584c00610098001e0078008ef89700614898005f
:10585c001e007800eef09700714898001e0078004a
:10586c00aeb89700010898001e0078009eb897000b
:10587c00110898001e0078008ef097004150980097
:10588c001e007800eee89700515098001e0078003a
:10589c00eeb09700310898001e007800deb097003b
:1058ac00410898001e0078008000eb005108980019
:1058bc001e0078008000eb00610898001e00780044
:1058cc008000eb00710898001e0078008000eb004f
:1058dc00011098001e0078008000eb001110980059
:1058ec001e0078008000eb00211098001e0078004c
:1058fc008000eb00311098001e0078008000eb0057
:10590c00411098001e0078008000eb0051109800a8
:10591c001e0078008000eb00611098001e007800db
:10592c008000eb00711098001e0078008000eb00e6
:10593c00011898001e0078008000eb0011189800e8
:10594c001e0078008000eb00211898001e007800e3
:10595c0011002000311898001e0078008000eb0028
:10596c00411898001e0078008000eb005118980038
:10597c000080fa00000006001000fa00881f780072
:10598c00000f780011079800220798003307980041
:10599c00440798005607980067079800654f9800d1
:1059ac001e007800100078008000eb0001087800e1
:1059bc001e00900060009000e10f40000e023200cb
:1059cc002e00900060009000e10f40000c023200ad
:1059dc001e00900000089000e00f500069003a0093
:1059ec002e00900000089000e00f500065003a0077
:1059fc001e009000f60707001e00900051080700db
:105a0c002e009000cb0707001e0078009e0090002f
:105a1c00510898001e0090009e0078000108980024
:105a2c001e0090008000eb00110898001e009000f2
:105a3c008000eb00210898001e007800ae0090005a
:105a4c00610898002e0090009e00780001089800d4
:105a5c002e0090008000eb00110898002e009000a2
:105a6c008000eb0021089800113a8000f00b200018
:105a7c000081600060042000710520002374200068
:105a8c008049780081497800824978001e00900096
:105a9c00f00090001e009000700090001001780043
:105aac001e009000204890000080fb00f3032000b3
:105abc000018dd000080ea0000006100800878001a
:105acc001e009000f00090001e00900070009000ee
:105adc00100178001e007800b00990001e009000a4
:105aec00204890000080fb000018dd0000007100d1
:105afc00800878001e007800800890001e00780056
:105b0c0000089000100178001e00780040509000b2
:105b1c000080fb00f30320000018dd000080ea0089
:105b2c0000006100800878001e007800800890005a
:105b3c001e00780000089000100178002e009000e4
:105b4c00e00190001e007800405090000080fb00a7
:105b5c000018dd000000710080087800113a800008
:105b6c0000042000008170006004200071052000fa
:105b7c00237420008049780081497800824978009c
:105b8c000a0037001e007800d00890001e0090001c
:105b9c00808f50009c013a001e007800e0089000b5
:105bac002e009000808f500099013a003e0090002a
:105bbc00e00f5000870032004e009000e00f5000c4
:105bcc00840032003e00900060009000e10f400025
:105bdc00910132004e00900060009000e10f4000f7
:105bec008f0132003e00900000089000e00f500042
:105bfc0069003a004e00900000089000e00f500041
:105c0c0065003a003e009000710707003e009000ce
:105c1c00cc0707004e009000460707001e007800d6
:105c2c00be009000710898003e0090009e00780025
:105c3c00010898003e0090008000eb0011089800cd
:105c4c003e0090008000eb00210898001e007800b8
:105c5c00ce009000011098004e0090009e0078003d
:105c6c00010898004e0090008000eb00110898008d
:105c7c004e0090008000eb0021089800113a800043
:105c8c00f00b2000008160006004200071052000f2
:105c9c00237420008049780081497800824978007b
:105cac003e009000f00090003e00900070009000cc
:105cbc00100178003e009000204890000080fb000e
:105ccc00f30320000018dd000080ea0000006100f2
:105cdc00800878003e009000f00090003e0090009c
:105cec0070009000100178001e007800c009900030
:105cfc003e009000204890000080fb000018dd0062
:105d0c0000007100800878001e0078009008900058
:105d1c001e00780010089000100178001e0078001a
:105d2c00505090000080fb00f30320000018dd00b1
:105d3c000080ea0000006100800878001e007800f6
:105d4c00900890001e007800100890001001780058
:105d5c004e009000e00190001e0078005050900022
:105d6c000080fb000018dd00000071008008780046
:105d7c00113a8000000420000081700060042000b3
:105d8c007105200023742000804978008149780037
:105d9c00824978000a0037001e007800f008900055
:105dac003e009000808f50001f013a001e007800ca
:105dbc00801090004e009000808f50001c013a0023
:105dcc001e007800100078000120200001087800e7
:105ddc00060037003e009000e00f500016013a001c
:105dec004e009000e00f500015013a0018c0b300af
:105dfc000240220043a724005e009000ee009000b9
:105e0c003ff20700e00f500001003c000044eb00a3
:105e1c00e04f5400040032000040220041a724004f
:105e2c00500798006107980018c0b3000240220088
:105e3c00431724005e009000ee0090002ef2070045
:105e4c00e00f5000010035000044eb00e04f54001f
:105e5c000400320000402200411724005007980033
:105e6c006107980018c0b3000240220043272400a9
:105e7c005e009000ee0090001ff20700e00f500053
:105e8c00010034000044eb00e04f54000f003200de
:105e9c001e007800400490005e019000ee0190001e
:105eac000040220041972400d1f10700020020009d
:105ebc0003f0230071f1070013f2070000007800d3
:105ecc000000e900000c7800150037001e00780077
:105edc00100078009e007800910078009100780006
:105eec000130a000010878001e00780040049000ea
:105efc005e019000ee0190000040220041a72400ba
:105f0c00bbf107000200200003f023005bf1070047
:105f1c00fdf10700000078000000e900000c78009b
:105f2c00ee48900050c4b30080cf50000400320003
:105f3c00ee48900050c6b30080cf500008003a00e5
:105f4c001e007800100078009e0078009100780008
:105f5c00910078000110a0000108780018003700ab
:105f6c00ee489000f0c4b30080cf50000400320023
:105f7c00ee489000f0c6b30080cf500008003a0005
:105f8c001e007800100078009e00780091007800c8
:105f9c00910078000120a00001087800080037006b
:105fac00ee489000e0c4b30080cf500004003200f3
:105fbc00ee489000e0c6b30080cf5000a2003a003b
:105fcc004eb89700e20f500008003a001e0078000f
:105fdc00100078009e007800910078009100780005
:105fec000100a00001087800030037004eb89700ac
:105ffc00e10f500096003a002eb89700e00f5000c9
:10600c0004003a001e007800e1722200411898004a
:10601c00360037001e007800100090009e007800bb
:10602c0091009000110178000100220081007100a4
:10603c00010878001e007800aeb897001110980087
:10604c001e0078009eb89700211098001e00780062
:10605c008000eb00311098001e0078008000eb00ef
:10606c00411098001e0078008000eb005110980041
:10607c001e007800beb89700311898001e007800fa
:10608c0001772200411898001e007800d000900083
:10609c001e00780050009000100178001e0078005f
:1060ac00604890000080fb00130020000018dd0009
:1060bc000080ea0000006100800878001e00780073
:1060cc00e00090001e007800600090001001780045
:1060dc001e007800604890000080fb001300200038
:1060ec000018dd0000007100800878000eb89700e1
:1060fc00e00f500004003a001e00780021752200c9
:10610c00511898002b0037001e0078008eb89700ad
:10611c00611098001e007800feb097007110980076
:10612c001e0078008000eb00011898001e0078001b
:10613c008000eb00111898001e0078008000eb0026
:10614c00211898001e007800218622005118980012
:10615c001e007800d00090001e00780050009000c7
:10616c00100178001e007800704890000080fb0041
:10617c00130020000018dd000080ea000000610020
:10618c00800878001e007800e00090001e00780067
:10619c0060009000100178001e007800704890009c
:1061ac000080fb00130020000018dd0000007100cf
:1061bc00800878001e007800100078009e0078009f
:1061cc009100780011017800010028008100710015
:1061dc00010878001e007800100090009e007800e6
:1061ec0091009000110178000140200081007100a5
:1061fc000108780017003700000000001500370078
:10620c0000000000130037000000000011003700f0
:10621c00000000000f003700000000000d003700e8
:10622c00000000000b0037000000000009003700e0
:10623c0000000000070037000000000005003700d8
:10624c0000000000030037000000000001003700d0
:10625c00000000004f0478000080fa0000000600e7
:10626c000200fa00000f78001e0078001000900069
:10627c009e0078009100900011017800f1bf2f0072
:10628c0081006100010878001e0078001000780081
:10629c008000eb00010878001e007800e000900000
:1062ac001e00780060009000100178001e0078003d
:1062bc00604890000080fb00130020000018dd00f7
:1062cc000080ea0000006100800878001e00780061
:1062dc00e00090001e007800600090001001780033
:1062ec001e007800704890000080fb001300200016
:1062fc000018dd000080ea000000610080087800d2
:10630c001e0078008000eb00411898001e007800f9
:10631c008000eb00511898001e0078005008900087
:10632c00e00f50002f003200113a8000f00b2000db
:10633c00008160006004200071052000237420009f
:10634c008049780081497800824978001e007800e5
:10635c0050089000f00090001e007800500890004b
:10636c0070009000100178001e007800500890001a
:10637c00204890000080fb00f30320000018dd0093
:10638c000080ea000000610080087800113a80006b
:10639c0000042000008170006004200071052000c2
:1063ac002374200080497800814978008249780064
:1063bc001e007800500890008000eb000108980047
:1063cc001e00780050089000810507001e00780020
:1063dc0050089000db0507001e0078008000eb00e1
:1063ec00510898001e00780060089000e00f5000e3
:1063fc0028003200113a8000f00b20000081600070
:10640c00600420007105200023742000804978006e
:10641c0081497800824978001e007800800890003d
:10642c001e00780000089000100178001e00780013
:10643c00405090000080fb00f30320000018dd00aa
:10644c000000710080087800113a800000042000e0
:10645c00008170006004200071052000237420006e
:10646c008049780081497800824978001e007800c4
:10647c00600890008000eb00010898001e00780076
:10648c00600890002b0507001e0078008000eb00d0
:10649c00610898001e00780070089000e00f500012
:1064ac002f003200113a8000f00b200000816000b8
:1064bc0060042000710520002374200080497800be
:1064cc0081497800824978001e007800700890009d
:1064dc00f00090001e007800700890007000900092
:1064ec00100178001e007800700890002048900081
:1064fc000080fb00f30320000018dd000080ea00a0
:10650c000000610080087800113a8000000420002f
:10651c0000817000600420007105200023742000ad
:10652c008049780081497800824978001e00780003
:10653c00700890008000eb00010898001e007800a5
:10654c0070089000220507001e007800700890006b
:10655c007c0507001e0078008000eb007108980095
:10656c001e00780000109000e00f50002800320050
:10657c00113a8000f00b20000081600060042000c4
:10658c00710520002374200080497800814978002f
:10659c00824978001e007800900890001e00780058
:1065ac0010089000100178001e00780050509000e8
:1065bc000080fb00f30320000018dd0000007100d8
:1065cc0080087800113a80000004200000817000df
:1065dc00600420007105200023742000804978009d
:1065ec0081497800824978001e00780000109000e4
:1065fc008000eb00010898001e007800001090004d
:10660c00cc0407001e0078008000eb0001109800fd
:10661c000080fa00000006000400fa00000f780069
:10662c00214798001e00780040189000e00f5000a1
:10663c00050032001e00780040199000ae4090001a
:10664c001e007800020001000080fa000000060025
:10665c000200fa00000f78001e007800501890001d
:10666c00e00f5000050032001e007800d01890009a
:10667c001e007800010001000100370000c0eb0093
:10668c000080fa00000006000200fa00000f7800fb
:10669c001e00780010009000900078000040200050
:1066ac0000806000e00f500008003a001e007800e7
:1066bc00100090009e00780091009000110178006d
:1066cc000140200081007100010878000080fa0070
:1066dc00000006000400fa00000f78001107980073
:1066ec00080037001e009000104078009e009000bb
:1066fc008100e80011079800804078001e007800a7
:10670c00c5ff07001e00900010407800e04f5000bd
:10671c00f4ff3a001e007800dbff07000080fa004f
:10672c00000006000a00fa002007980031079800c4
:10673c00420798004e009000e00f50008700320096
:10674c004e009000e10f500004003a00be00900093
:10675c000040eb008048780081003700b1c1b300e5
:10676c002e009000acff070071c3b3002e00900008
:10677c00a9ff07002e009000c3ff07003e00900009
:10678c00100798004e009000000f780003003700af
:10679c000000000001003700000000002e009000f7
:1067ac00abff0700be009000804878003e009000d0
:1067bc0010407800ed4f50000c003a00be009000e5
:1067cc000040eb0080487800a1c0b3002e00900080
:1067dc0091ff0700d1c0b3002e0090008eff070080
:1067ec002e009000a8ff07005d0037003e009000cf
:1067fc0010407800fb4f500016003a00b1c1b300b6
:10680c002e00900084ff070081c3b3002e0090007f
:10681c0081ff0700b1c1b3002e0090007eff07007e
:10682c00b1c5b3002e0090007bff0700b1c4b300cc
:10683c002e00900078ff07002e00900092ff0700ba
:10684c001e009000300798004e009000000f78005a
:10685c00410037003e00900010407800e84f500097
:10686c00050032003e00900090407800f0c7b30065
:10687c0080cf50001a003a00be0090001e0090001d
:10688c00808f50001000360081c0b3002e009000a5
:10689c0061ff070001c2b3002e0090005eff0700ed
:1068ac0081c0b3002e0090005bff07002e0090000b
:1068bc0075ff07003e0090000000e90030079800cb
:1068cc001e0fe8000500370071c0b3002e009000c9
:1068dc0051ff07002e0090006bff07001e003700d1
:1068ec001e007800e10f500006003a0071c0b300a2
:1068fc002e00900048ff07002e00900062ff07005a
:10690c00150037003e00900010407800ff4f5000fb
:10691c009fff36003e00900090407800e0c7b30027
:10692c0080cf50009cff3e003e009000104078004d
:10693c00804078002e00900037ff07002e0090005a
:10694c0051ff07003e0090000000e800300798005f
:10695c001e0fe90091ff370090ff37000000000088
:10696c000080fa00000006000200fa00000f780018
:10697c001e007800ec0107001e0078001008900043
:10698c00e00f5000050032001e00780090089000c7
:10699c001e007800010001001a0037001e0078006c
:1069ac0020089000e00f5000140032001e00780008
:1069bc0000089000e00f50000a0032001e00780022
:1069cc00a00890001e007800010001001e00780055
:1069dc00000890008000e9001e0078000108980073
:1069ec00080037001e007800f70107001e00780031
:1069fc008000eb0021089800020037001e00780090
:106a0c00f10107000080fa00000006003600f800d3
:106a1c00809fbe00829fbe00849fbe00869fbe00ea
:106a2c003200f80000202000900188000000fa00dd
:106a3c00a0b72000ccff07000080fa003200f9005c
:106a4c004f03be004f02be004f01be004f00be0000
:106a5c003600f900004006003600f800809fbe00aa
:106a6c00829fbe00849fbe00869fbe003200f8004d
:106a7c0000202000900188000000fa0000b92000de
:106a8c00b9ff07000080fa003200f9004f03be0086
:106a9c004f02be004f01be004f00be003600f90091
:106aac00004006003600f800809fbe00829fbe00aa
:106abc00849fbe00869fbe003200f800002020009c
:106acc00900188000000fa0060ba2000a6ff0700c1
:106adc000080fa003200f9004f03be004f02be00e6
:106aec004f01be004f00be003600f900004006000a
:106afc003600f800809fbe00829fbe00849fbe00bf
:106b0c00869fbe003200f800002020009001880013
:106b1c000000fa00c0bb200093ff07000080fa00c1
:106b2c003200f9004f03be004f02be004f01be0001
:106b3c004f00be003600f900004006003600f80099
:106b4c00809fbe00829fbe00849fbe00869fbe00b9
:106b5c003200f80000202000900188000000fa00ac
:106b6c0020bd200080ff07000080fa003200f900f1
:106b7c004f03be004f02be004f01be004f00be00cf
:106b8c003600f900004006000000fa00b0002000ba
:106b9c00801f78004700200036c0b3004509200054
:106bac004408200003102000221020004110200077
:106bbc00a0b72000330007008f87e900c000200039
:106bcc00801f78008003eb0076c0b30045092000dd
:106bdc004408200063102000c21020000111200086
:106bec0000b92000270007008f87e900d0002000a3
:106bfc00801f78001700200086c0b30045092000d4
:106c0c0044082000a3102000e210200021112000d5
:106c1c0060ba20001b0007008f87e900e00020000d
:106c2c00801f780027002000b6c0b3006509200043
:106c3c006408200043112000a2112000e111200063
:106c4c00c0bb20000f0007008f87e900f000200078
:106c5c00801f780037002000c6c0b30065092000f3
:106c6c006408200083112000c211200001122000b2
:106c7c0020bd2000030007008f87e9000080fa0088
:106c8c00000006001000fa00000f780011079800b1
:106c9c00220798003307980044079800550798007e
:106cac00464f9800770798001e0078009e009000d1
:106cbc00010878001e007800ae00900011009800ca
:106ccc001e007800be009000210098001e00780085
:106cdc00ce009000310098001e007800de0090007d
:106cec00410098001e007800ce4890002148980082
:106cfc001e007800fe009000610098001e007800d5
:106d0c00ceb89700710098001e0078008000eb0050
:106d1c00010898001e0078008000eb001108980014
:106d2c001e0078008000eb00210898000080fa001b
:106d3c00000006000600fa00881f7800000f78009b
:106d4c00120798002307980018c0b300d27b2300c9
:106d5c0063f823001e009000ae00900068ee070060
:106d6c00e00f500001003c000044eb00e04f5400e9
:106d7c0069003a0018c0b300d27b230063e82300fb
:106d8c001e009000ae0090005dee0700e00f50007a
:106d9c0001003c000044eb00e04f540012003200b4
:106dac001e007800c40007001e0078001000780058
:106dbc0001032000010878001e00780010049000e8
:106dcc0002402200437724001e009000ae00900089
:106ddc00bdee07004cee0700000078000000e90053
:106dec00000c78004d00370018c0b300d27b230094
:106dfc0063d023001e009000ae00900040ee070010
:106e0c00e00f500001003c000044eb00e04f540048
:106e1c00120032001e007800a70007001e00780048
:106e2c001000780001022000010878001e00780094
:106e3c001004900002402200438724001e009000a2
:106e4c00ae009000a0ee07002fee070000007800c7
:106e5c000000e900000c78003000370018c0b300c7
:106e6c00d27b230063b823001e009000ae0090007c
:106e7c0023ee0700e00f500001003c000044eb0043
:106e8c00e04f5400120032001e0078008a00070008
:106e9c001e00780010007800010120000108780025
:106eac001e0078001004900002402200439f240032
:106ebc001e009000ae00900083ee070012ee07005b
:106ecc00000078000000e900000c78001300370087
:106edc001e007800780007001e0078001000780073
:106eec008000eb00010878001e0078001004900070
:106efc000240220043b724001e009000ae00900018
:106f0c0071ee070000ee0700000078000000e900b9
:106f1c00000c780001003700000000004f047800de
:106f2c000080fa00000006000400fa00889fbe00f2
:106f3c00100798001e009000100078009000780058
:106f4c0000032000008060004400de00000f780089
:106f5c001e007800c200dd0040c42000008040000c
:106f6c001004be001e00900010009000100078006d
:106f7c0001002000ffed07000200200003f82300b1
:106f8c003eed07000001be000800be004eee0700fb
:106f9c004f04be000080fa00000006000600fa0054
:106fac00000f780012079800230798001e0190002c
:106fbc00ae0190000000200001f823008ced0700ca
:106fcc000001be001e0078005aff07000080fa0086
:106fdc00000006000200fa00000f78001e00780086
:106fec00d1ff07000001be000000200001f82300c3
:106ffc007fed07000080fa00000006000400fa0094
:10700c00889fbe00100798001e00900010007800aa
:10701c009000780000032000008060004400de0037
:10702c00000f78001e007800c200dd0040c4200074
:10703c00008040001004be001e0090001000900064
:10704c001000780001002000caed070002002000ab
:10705c0003f8230009ed07000001be000800be0084
:10706c0019ee07004f04be000080fa000000060075
:10707c000200fa00000f78001e0078002a000700ba
:10708c001e007800200090008000eb0001087800c2
:10709c001e007800100078009e00780091007800a7
:1070ac0011017800010028008100710001087800ae
:1070bc000080fa00000006000200fa00000f7800c1
:1070cc001e007800100078009e0078009100780077
:1070dc0011017800f1ff27008100610001087800a0
:1070ec000080fa00000006000200fa00000f780091
:1070fc001e00780030009000900078001e00780090
:10710c00204890000080fb00120020000010dd00e1
:10711c00808060000100ea00010070004f00de007a
:10712c000080fa00000006000200fa00000f780050
:10713c001e007800b00090001e0078003000900017
:10714c00100178001e007800204890000080fb00a1
:10715c00130020000018dd000080ea000000610030
:10716c00800878000080fa00000006000200fa0097
:10717c00000f78001e0078002000900010007800ae
:10718c000080fa00000006000200fa00000f7800f0
:10719c001e007800c00090001e0078004000900097
:1071ac00100178001e007800204890000080fb0041
:1071bc00130020000018dd0000007100800878002a
:1071cc000080fa00000006000200fa00000f7800b0
:1071dc001e007800c00090001e0078004000900057
:1071ec00100178001e007800204890000080fb0001
:1071fc00130020000018dd000080ea000000610090
:10720c00800878000080fa00000006000800fa00f0
:10721c00000f780012079800230798003107980098
:10722c001e007800e8ff07001e019000ae019000e0
:10723c001e007800bffe07001e0078008000eb00e7
:10724c00010898001e007800be00900011089800fc
:10725c001e0078008000eb00210898001e007800ca
:10726c00c9ff07001e00780081ff07000080fa00ac
:10727c00000006000a00fa00000f780012079800c0
:10728c002307980031079800440798001e007800e7
:10729c00cdff07001e019000ae0190001e0078008b
:1072ac00a4fe07001e007800be00900001089800a4
:1072bc001e0078008000eb00110898001e0078007a
:1072cc00ce009000210898001e007800aeff070049
:1072dc001e00780066ff07000080fa000000060020
:1072ec000200fa00000f78001e007800b6ff0700bd
:1072fc001e0078008cff07001e0078006eff070050
:10730c001e0078008000eb00010898001e00780039
:10731c008000eb00110898001e0078008000eb0044
:10732c00210898000080fa00000006000400fa0012
:10733c00000f7800110798001e009000e00f50001d
:10734c000d0032001e007800900078001e007800be
:10735c0010007800100178001e007800604090004a
:10736c000080fb00130020000018dd0000007100fd
:10737c00800878000d0037001e007800900078001f
:10738c001e00780010007800100178001e007800b4
:10739c00604090000080fb00130020000018dd000e
:1073ac000080ea0000006100800878000080fa008c
:1073bc00000006000200fa00000f78001e007800a2
:1073cc0010007800900078001e007800604090005b
:1073dc000080fb00120020000010dd0080806000a7
:1073ec000100ea00010070004f00de000080fa008e
:1073fc00000006000200fa00000f78001e00780062
:10740c0040009000401988002023a80000000000d4
:10741c000019800061006000e00f5000fcff32009a
:10742c00001880000080fa00000006000200fa003c
:10743c00406d2000801f7800470120000043eb00c6
:10744c008082eb0054c0b3008001eb00822d200041
:10745c00a12d2000008020000a0107008f87e90081
:10746c00806d2000801f78009701200086c0b3003b
:10747c008082eb0044c0b3008001eb00822d200021
:10748c00a12d200060812000fe0007008f87e900fd
:10749c00a06c2000801f7800a70020000043eb00a8
:1074ac008082eb0044c0b3008001eb00822e2000f0
:1074bc00a12e2000c0822000f20007008f87e90077
:1074cc00006d2000801f78001701200086c0b300db
:1074dc008082eb0054c0b3008001eb00822e2000b0
:1074ec00a12e200020842000e60007008f87e900f1
:1074fc00c06d2000801f7800d701200086c0b3002b
:10750c00f5002000f4c0b300234e2000822c200094
:10751c00a12c200080852000da0007008f87e9006d
:10752c00006d2000801f7800070120000043eb0055
:10753c008082eb0034c0b3008001eb00822e20006f
:10754c00a12e2000e0862000ce0007008f87e900e6
:10755c00206c2000801f7800270020000043eb00e7
:10756c008082eb0084c0b3008001eb00822d2000f0
:10757c00a12d200040882000c20007008f87e90061
:10758c00c06c2000801f7800c70020000043eb0077
:10759c008082eb00b4c0b3008001eb00822d200090
:1075ac00a12d2000a0892000b60007008f87e900dc
:1075bc00406c2000801f7800470020000043eb0047
:1075cc008082eb0094c0b3008001eb00822d200080
:1075dc00a12d2000008b2000aa0007008f87e90056
:1075ec00206c2000801f78003700200086c0b3007c
:1075fc008082eb00a4c0b3008001eb00822d200040
:10760c00a12d2000608c20009e0007008f87e900d0
:10761c00a06c2000801f7800b700200086c0b3004b
:10762c008082eb000042eb008001eb00822d2000f9
:10763c00a12d2000c08d2000920007008f87e9004b
:10764c00806d2000801f7800870120000043eb0034
:10765c008082eb0014c0b3008001eb00822d20006f
:10766c00a12d2000208f2000860007008f87e900c5
:10767c00606d2000801f78007701200086c0b30069
:10768c008082eb0024c0b3008001eb00822d20002f
:10769c00a12d2000809020007a0007008f87e90040
:1076ac00606d2000801f7800670120000043eb0014
:1076bc008082eb0034c0b3008001eb00822d2000ef
:1076cc00a12d2000e09120006e0007008f87e900bb
:1076dc00006c2000801f78008003eb000043eb005f
:1076ec008002eb000042eb00234e2000822c200095
:1076fc00a12c200040932000620007008f87e90036
:10770c00006c2000801f78001700200086c0b3009a
:10771c001500200014c0b300234e2000822c200042
:10772c00a12c2000a0942000560007008f87e900b0
:10773c00c06c2000801f7800d700200086c0b300ea
:10774c002500200024c0b300234e2000822c2000f2
:10775c00a12c2000009620004a0007008f87e9002a
:10776c000000eb00801f78008083eb000043eb00ef
:10777c003500200034c0b300234e2000822c2000a2
:10778c00a12c2000609720003e0007008f87e900a5
:10779c00c06d2000801f7800c70120000043eb0063
:1077ac004500200044c0b300234e2000822c200052
:1077bc00a12c2000c0982000320007008f87e90020
:1077cc00206d2000801f7800270120000043eb0073
:1077dc005500200054c0b300234e2000822c200002
:1077ec00a12c2000209a2000260007008f87e9009a
:1077fc000000eb00000f7800070037001e00780037
:10780c007600b900800078000080200000804000e5
:10781c00480007001e0fe8001e007800ed0f500016
:10782c00f6ff36000000eb00000f78000700370071
:10783c001e0078007600b90080007800409320008c
:10784c0000804000970007001e0fe8001e00780023
:10785c00e50f5000f6ff3600002e200000198800be
:10786c000000eb001019880000c4200020198800cb
